{
  "contractName": "Vinsoft_bt2",
  "abi": [
    {
      "constant": false,
      "inputs": [
        {
          "name": "_name",
          "type": "string"
        },
        {
          "name": "_readyTime",
          "type": "uint256"
        }
      ],
      "name": "newZombie",
      "outputs": [],
      "payable": false,
      "stateMutability": "nonpayable",
      "type": "function"
    },
    {
      "constant": true,
      "inputs": [
        {
          "name": "_addr",
          "type": "address"
        }
      ],
      "name": "countZombie",
      "outputs": [
        {
          "name": "",
          "type": "uint8"
        }
      ],
      "payable": false,
      "stateMutability": "view",
      "type": "function"
    },
    {
      "constant": true,
      "inputs": [
        {
          "name": "_addr",
          "type": "address"
        },
        {
          "name": "_index",
          "type": "uint8"
        }
      ],
      "name": "isReadyAttack",
      "outputs": [
        {
          "name": "",
          "type": "bool"
        }
      ],
      "payable": false,
      "stateMutability": "view",
      "type": "function"
    },
    {
      "constant": false,
      "inputs": [
        {
          "name": "_addr",
          "type": "address"
        },
        {
          "name": "_index",
          "type": "uint8"
        },
        {
          "name": "_name",
          "type": "string"
        }
      ],
      "name": "modifierNameMyZomibe",
      "outputs": [],
      "payable": false,
      "stateMutability": "nonpayable",
      "type": "function"
    },
    {
      "constant": false,
      "inputs": [
        {
          "name": "_addr",
          "type": "address"
        },
        {
          "name": "_index",
          "type": "uint8"
        },
        {
          "name": "_DNA",
          "type": "uint256"
        }
      ],
      "name": "modifierDNAMyZomibe",
      "outputs": [],
      "payable": false,
      "stateMutability": "nonpayable",
      "type": "function"
    },
    {
      "constant": false,
      "inputs": [
        {
          "name": "_addr",
          "type": "address"
        },
        {
          "name": "_index1",
          "type": "uint8"
        },
        {
          "name": "_index2",
          "type": "uint8"
        }
      ],
      "name": "mixMyZomibeToNewZombie",
      "outputs": [],
      "payable": false,
      "stateMutability": "nonpayable",
      "type": "function"
    },
    {
      "constant": false,
      "inputs": [
        {
          "name": "_addr",
          "type": "address"
        },
        {
          "name": "_index",
          "type": "uint8"
        },
        {
          "name": "_value",
          "type": "uint256"
        }
      ],
      "name": "increaseLevelMyZombie",
      "outputs": [],
      "payable": true,
      "stateMutability": "payable",
      "type": "function"
    },
    {
      "constant": true,
      "inputs": [
        {
          "name": "_addr",
          "type": "address"
        },
        {
          "name": "_index",
          "type": "uint8"
        }
      ],
      "name": "infoZombie",
      "outputs": [
        {
          "name": "",
          "type": "string"
        },
        {
          "name": "",
          "type": "uint256"
        },
        {
          "name": "",
          "type": "uint256"
        },
        {
          "name": "",
          "type": "uint256"
        },
        {
          "name": "",
          "type": "uint256"
        },
        {
          "name": "",
          "type": "uint256"
        }
      ],
      "payable": false,
      "stateMutability": "view",
      "type": "function"
    },
    {
      "constant": true,
      "inputs": [
        {
          "name": "_addr",
          "type": "address"
        }
      ],
      "name": "listOfMyZombie",
      "outputs": [
        {
          "name": "arr",
          "type": "uint256[]"
        }
      ],
      "payable": false,
      "stateMutability": "view",
      "type": "function"
    }
  ],
  "bytecode": "0x608060405234801561001057600080fd5b50611565806100206000396000f300608060405260043610610099576000357c0100000000000000000000000000000000000000000000000000000000900463ffffffff1680634f98f91d1461009e57806354e046361461010657806354e586081461019e5780637763aa2a14610234578063b0650dd51461028e578063cf6217781461037a578063d484b724146103ed578063e39a014f1461044a578063e627b4db14610497575b600080fd5b3480156100aa57600080fd5b506100ec600480360381019080803573ffffffffffffffffffffffffffffffffffffffff169060200190929190803560ff1690602001909291905050506104f4565b604051808215151515815260200191505060405180910390f35b34801561011257600080fd5b50610147600480360381019080803573ffffffffffffffffffffffffffffffffffffffff16906020019092919050505061056a565b6040518080602001828103825283818151815260200191508051906020019060200280838360005b8381101561018a57808201518184015260208101905061016f565b505050509050019250505060405180910390f35b3480156101aa57600080fd5b50610232600480360381019080803573ffffffffffffffffffffffffffffffffffffffff169060200190929190803560ff169060200190929190803590602001908201803590602001908080601f016020809104026020016040519081016040528093929190818152602001838380828437820191505050505050919291929050505061060c565b005b34801561024057600080fd5b5061028c600480360381019080803573ffffffffffffffffffffffffffffffffffffffff169060200190929190803560ff1690602001909291908035906020019092919050505061067e565b005b34801561029a57600080fd5b506102dc600480360381019080803573ffffffffffffffffffffffffffffffffffffffff169060200190929190803560ff1690602001909291905050506106e0565b6040518080602001878152602001868152602001858152602001848152602001838152602001828103825288818151815260200191508051906020019080838360005b8381101561033a57808201518184015260208101905061031f565b50505050905090810190601f1680156103675780820380516001836020036101000a031916815260200191505b5097505050505050505060405180910390f35b34801561038657600080fd5b506103eb600480360381019080803590602001908201803590602001908080601f0160208091040260200160405190810160405280939291908181526020018383808284378201915050505050509192919290803590602001909291905050506109b1565b005b3480156103f957600080fd5b5061042e600480360381019080803573ffffffffffffffffffffffffffffffffffffffff169060200190929190505050610cbc565b604051808260ff1660ff16815260200191505060405180910390f35b610495600480360381019080803573ffffffffffffffffffffffffffffffffffffffff169060200190929190803560ff16906020019092919080359060200190929190505050610d12565b005b3480156104a357600080fd5b506104f2600480360381019080803573ffffffffffffffffffffffffffffffffffffffff169060200190929190803560ff169060200190929190803560ff169060200190929190505050610ece565b005b60008060008473ffffffffffffffffffffffffffffffffffffffff1673ffffffffffffffffffffffffffffffffffffffff16815260200190815260200160002060008360ff1660ff1681526020019081526020016000206003015442101561055f5760019050610564565b600090505b92915050565b6060600080600160008573ffffffffffffffffffffffffffffffffffffffff1673ffffffffffffffffffffffffffffffffffffffff16815260200190815260200160002060009054906101000a900460ff169150600090505b8160ff168160ff16111515610602578060ff16838260ff168151811015156105e757fe5b906020019060200201818152505080806001019150506105c3565b8292505050919050565b806000803373ffffffffffffffffffffffffffffffffffffffff1673ffffffffffffffffffffffffffffffffffffffff16815260200190815260200160002060008460ff1660ff168152602001908152602001600020600001908051906020019061067892919061144c565b50505050565b806000803373ffffffffffffffffffffffffffffffffffffffff1673ffffffffffffffffffffffffffffffffffffffff16815260200190815260200160002060008460ff1660ff16815260200190815260200160002060010181905550505050565b606060008060008060008060008973ffffffffffffffffffffffffffffffffffffffff1673ffffffffffffffffffffffffffffffffffffffff16815260200190815260200160002060008860ff1660ff1681526020019081526020016000206000016000808a73ffffffffffffffffffffffffffffffffffffffff1673ffffffffffffffffffffffffffffffffffffffff16815260200190815260200160002060008960ff1660ff168152602001908152602001600020600101546000808b73ffffffffffffffffffffffffffffffffffffffff1673ffffffffffffffffffffffffffffffffffffffff16815260200190815260200160002060008a60ff1660ff168152602001908152602001600020600201546000808c73ffffffffffffffffffffffffffffffffffffffff1673ffffffffffffffffffffffffffffffffffffffff16815260200190815260200160002060008b60ff1660ff168152602001908152602001600020600401546000808d73ffffffffffffffffffffffffffffffffffffffff1673ffffffffffffffffffffffffffffffffffffffff16815260200190815260200160002060008c60ff1660ff168152602001908152602001600020600501546000808e73ffffffffffffffffffffffffffffffffffffffff1673ffffffffffffffffffffffffffffffffffffffff16815260200190815260200160002060008d60ff1660ff16815260200190815260200160002060030154858054600181600116156101000203166002900480601f0160208091040260200160405190810160405280929190818152602001828054600181600116156101000203166002900480156109945780601f1061096957610100808354040283529160200191610994565b820191906000526020600020905b81548152906001019060200180831161097757829003601f168201915b505050505095509550955095509550955095509295509295509295565b600060018060003373ffffffffffffffffffffffffffffffffffffffff1673ffffffffffffffffffffffffffffffffffffffff16815260200190815260200160002060008282829054906101000a900460ff160192506101000a81548160ff021916908360ff160217905550600160003373ffffffffffffffffffffffffffffffffffffffff1673ffffffffffffffffffffffffffffffffffffffff16815260200190815260200160002060009054906101000a900460ff169050826000803373ffffffffffffffffffffffffffffffffffffffff1673ffffffffffffffffffffffffffffffffffffffff16815260200190815260200160002060008360ff1660ff1681526020019081526020016000206000019080519060200190610ad892919061144c565b50610ae16113df565b60ff166000803373ffffffffffffffffffffffffffffffffffffffff1673ffffffffffffffffffffffffffffffffffffffff16815260200190815260200160002060008360ff1660ff1681526020019081526020016000206001018190555060016000803373ffffffffffffffffffffffffffffffffffffffff1673ffffffffffffffffffffffffffffffffffffffff16815260200190815260200160002060008360ff1660ff1681526020019081526020016000206002018190555060008060003373ffffffffffffffffffffffffffffffffffffffff1673ffffffffffffffffffffffffffffffffffffffff16815260200190815260200160002060008360ff1660ff1681526020019081526020016000206004018190555060008060003373ffffffffffffffffffffffffffffffffffffffff1673ffffffffffffffffffffffffffffffffffffffff16815260200190815260200160002060008360ff1660ff16815260200190815260200160002060050181905550816000803373ffffffffffffffffffffffffffffffffffffffff1673ffffffffffffffffffffffffffffffffffffffff16815260200190815260200160002060008360ff1660ff16815260200190815260200160002060030181905550505050565b6000600160008373ffffffffffffffffffffffffffffffffffffffff1673ffffffffffffffffffffffffffffffffffffffff16815260200190815260200160002060009054906101000a900460ff169050919050565b600081118015610d61575080600260008573ffffffffffffffffffffffffffffffffffffffff1673ffffffffffffffffffffffffffffffffffffffff1681526020019081526020016000205410155b1515610d6c57600080fd5b610dd860016000808673ffffffffffffffffffffffffffffffffffffffff1673ffffffffffffffffffffffffffffffffffffffff16815260200190815260200160002060008560ff1660ff1681526020019081526020016000206002015461141490919063ffffffff16565b6000808573ffffffffffffffffffffffffffffffffffffffff1673ffffffffffffffffffffffffffffffffffffffff16815260200190815260200160002060008460ff1660ff16815260200190815260200160002060020181905550610e8681600260008673ffffffffffffffffffffffffffffffffffffffff1673ffffffffffffffffffffffffffffffffffffffff1681526020019081526020016000205461143090919063ffffffff16565b600260008573ffffffffffffffffffffffffffffffffffffffff1673ffffffffffffffffffffffffffffffffffffffff16815260200190815260200160002081905550505050565b610f916000803373ffffffffffffffffffffffffffffffffffffffff1673ffffffffffffffffffffffffffffffffffffffff16815260200190815260200160002060008360ff1660ff168152602001908152602001600020600101546000803373ffffffffffffffffffffffffffffffffffffffff1673ffffffffffffffffffffffffffffffffffffffff16815260200190815260200160002060008560ff1660ff1681526020019081526020016000206001015461141490919063ffffffff16565b6000803373ffffffffffffffffffffffffffffffffffffffff1673ffffffffffffffffffffffffffffffffffffffff16815260200190815260200160002060008460ff1660ff168152602001908152602001600020600101819055506110b06000803373ffffffffffffffffffffffffffffffffffffffff1673ffffffffffffffffffffffffffffffffffffffff16815260200190815260200160002060008360ff1660ff168152602001908152602001600020600201546000803373ffffffffffffffffffffffffffffffffffffffff1673ffffffffffffffffffffffffffffffffffffffff16815260200190815260200160002060008560ff1660ff1681526020019081526020016000206002015461141490919063ffffffff16565b6000803373ffffffffffffffffffffffffffffffffffffffff1673ffffffffffffffffffffffffffffffffffffffff16815260200190815260200160002060008460ff1660ff168152602001908152602001600020600201819055506111cf6000803373ffffffffffffffffffffffffffffffffffffffff1673ffffffffffffffffffffffffffffffffffffffff16815260200190815260200160002060008360ff1660ff168152602001908152602001600020600401546000803373ffffffffffffffffffffffffffffffffffffffff1673ffffffffffffffffffffffffffffffffffffffff16815260200190815260200160002060008560ff1660ff1681526020019081526020016000206004015461141490919063ffffffff16565b6000803373ffffffffffffffffffffffffffffffffffffffff1673ffffffffffffffffffffffffffffffffffffffff16815260200190815260200160002060008460ff1660ff168152602001908152602001600020600401819055506112ee6000803373ffffffffffffffffffffffffffffffffffffffff1673ffffffffffffffffffffffffffffffffffffffff16815260200190815260200160002060008360ff1660ff168152602001908152602001600020600501546000803373ffffffffffffffffffffffffffffffffffffffff1673ffffffffffffffffffffffffffffffffffffffff16815260200190815260200160002060008560ff1660ff1681526020019081526020016000206005015461141490919063ffffffff16565b6000803373ffffffffffffffffffffffffffffffffffffffff1673ffffffffffffffffffffffffffffffffffffffff16815260200190815260200160002060008460ff1660ff168152602001908152602001600020600501819055506000803373ffffffffffffffffffffffffffffffffffffffff1673ffffffffffffffffffffffffffffffffffffffff16815260200190815260200160002060008260ff1660ff168152602001908152602001600020600080820160006113b091906114cc565b600182016000905560028201600090556003820160009055600482016000905560058201600090555050505050565b600060fb4244604051808381526020018281526020019250505060405180910390206001900481151561140e57fe5b06905090565b6000818301905082811015151561142a57600080fd5b92915050565b600082821115151561144157600080fd5b818303905092915050565b828054600181600116156101000203166002900490600052602060002090601f016020900481019282601f1061148d57805160ff19168380011785556114bb565b828001600101855582156114bb579182015b828111156114ba57825182559160200191906001019061149f565b5b5090506114c89190611514565b5090565b50805460018160011615610100020316600290046000825580601f106114f25750611511565b601f0160209004906000526020600020908101906115109190611514565b5b50565b61153691905b8082111561153257600081600090555060010161151a565b5090565b905600a165627a7a723058206cc6827ed9c85b90a3850346ae0df246dc7e626e4ef412f250940f347b3cbf2f0029",
  "source": "pragma solidity ^0.4.18;\n\nlibrary SafeMath {\n    function add(uint a, uint b) internal pure returns (uint c) {\n        c = a + b;\n        require(c >= a);\n    }\n    function sub(uint a, uint b) internal pure returns (uint c) {\n        require(b <= a);\n        c = a - b;\n    }\n    function mul(uint a, uint b) internal pure returns (uint c) {\n        c = a * b;\n        require(a == 0 || c / a == b);\n    }\n    function div(uint a, uint b) internal pure returns (uint c) {\n        require(b > 0);\n        c = a / b;\n    }\n}\n\ncontract Vinsoft_bt2 {\n    using SafeMath for *;\n     \n    struct Zombie {\n        string name;\n        uint DNA;\n        uint level;\n        uint readyTime;\n        uint winCount;\n        uint lossCount;\n    }\n\n    mapping(address => mapping(uint8 => Zombie)) myZombie;\n    mapping(address => uint8) numberOfZomibe;\n    mapping(address => uint) balances;\n\n    function random() private view returns (uint8) {\n       return uint8(uint256(keccak256(block.timestamp, block.difficulty))%251);\n    }\n\n    function newZombie (string _name, uint _readyTime) public {\n        numberOfZomibe[msg.sender] += 1;\n        var index = numberOfZomibe[msg.sender];\n        myZombie[msg.sender][index].name = _name;\n        myZombie[msg.sender][index].DNA = random();\n        myZombie[msg.sender][index].level = 1;\n        myZombie[msg.sender][index].winCount = 0;\n        myZombie[msg.sender][index].lossCount = 0;\n        myZombie[msg.sender][index].readyTime = _readyTime;\n    }\n    \n    function countZombie (address _addr) public view returns (uint8) {\n        return numberOfZomibe[_addr];\n    }\n    \n    \n    function isReadyAttack(address _addr, uint8 _index) public view returns (bool) {\n        if(now < myZombie[_addr][_index].readyTime) {\n            return true;\n        } else {\n            return false;\n        }\n    }\n    \n    function modifierNameMyZomibe (address _addr, uint8 _index, string _name) public {\n        myZombie[msg.sender][_index].name = _name;\n    }\n    \n    \n    function modifierDNAMyZomibe (address _addr, uint8 _index, uint _DNA) public {\n        myZombie[msg.sender][_index].DNA = _DNA;\n    }\n    \n    function mixMyZomibeToNewZombie (address _addr, uint8 _index1, uint8 _index2) public {\n        myZombie[msg.sender][_index1].DNA = myZombie[msg.sender][_index1].DNA.add(myZombie[msg.sender][_index2].DNA);\n        myZombie[msg.sender][_index1].level = myZombie[msg.sender][_index1].level.add(myZombie[msg.sender][_index2].level);\n        myZombie[msg.sender][_index1].winCount = myZombie[msg.sender][_index1].winCount.add(myZombie[msg.sender][_index2].winCount);\n        myZombie[msg.sender][_index1].lossCount = myZombie[msg.sender][_index1].lossCount.add(myZombie[msg.sender][_index2].lossCount);\n        delete myZombie[msg.sender][_index2];\n    }\n    \n    function increaseLevelMyZombie (address _addr, uint8 _index, uint _value) public payable {\n        require(_value > 0 && balances[_addr] >= _value );\n        myZombie[_addr][_index].level = myZombie[_addr][_index].level.add(1);\n        balances[_addr] = balances[_addr].sub(_value);\n    }\n    \n    \n    function infoZombie (address _addr, uint8 _index) public view returns(string, uint, uint, uint, uint, uint) {\n        return\n            (\n                myZombie[_addr][_index].name, \n                myZombie[_addr][_index].DNA, \n                myZombie[_addr][_index].level, \n                myZombie[_addr][_index].winCount, \n                myZombie[_addr][_index].lossCount, \n                myZombie[_addr][_index].readyTime\n            );\n    }\n    \n    \n    function listOfMyZombie (address _addr) public view returns(uint256[] memory arr) {\n        var count = numberOfZomibe[_addr];\n        for(uint8 i = 0; i <= count; i++) {\n            arr[i] = i;\n        }\n        \n        return arr;\n    }\n}",
  "sourcePath": "/home/smoker/Desktop/Dapp/contracts/Vinsoft_bt2.sol",
  "compiler": {
    "name": "solc",
    "version": "0.4.24+commit.e67f0147.Emscripten.clang"
  },
  "schemaVersion": "2.0.1",
  "updatedAt": "2018-09-17T02:02:50.175Z"
}